{
  "_format": "hh-sol-artifact-1",
  "contractName": "Voting",
  "sourceName": "contracts/voting.sol",
  "abi": [
    {
      "inputs": [
        {
          "internalType": "address[5]",
          "name": "_voters",
          "type": "address[5]"
        }
      ],
      "stateMutability": "nonpayable",
      "type": "constructor"
    },
    {
      "inputs": [],
      "name": "endVoting",
      "outputs": [],
      "stateMutability": "nonpayable",
      "type": "function"
    },
    {
      "inputs": [],
      "name": "getVotes",
      "outputs": [
        {
          "internalType": "uint72",
          "name": "",
          "type": "uint72"
        },
        {
          "internalType": "uint72",
          "name": "",
          "type": "uint72"
        }
      ],
      "stateMutability": "view",
      "type": "function"
    },
    {
      "inputs": [],
      "name": "isVotingActive",
      "outputs": [
        {
          "internalType": "bool",
          "name": "",
          "type": "bool"
        }
      ],
      "stateMutability": "view",
      "type": "function"
    },
    {
      "inputs": [],
      "name": "optionOne",
      "outputs": [
        {
          "internalType": "uint72",
          "name": "",
          "type": "uint72"
        }
      ],
      "stateMutability": "view",
      "type": "function"
    },
    {
      "inputs": [],
      "name": "optionTwo",
      "outputs": [
        {
          "internalType": "uint72",
          "name": "",
          "type": "uint72"
        }
      ],
      "stateMutability": "view",
      "type": "function"
    },
    {
      "inputs": [],
      "name": "owner",
      "outputs": [
        {
          "internalType": "address",
          "name": "",
          "type": "address"
        }
      ],
      "stateMutability": "view",
      "type": "function"
    },
    {
      "inputs": [
        {
          "internalType": "bool",
          "name": "voteForFirst",
          "type": "bool"
        }
      ],
      "name": "vote",
      "outputs": [],
      "stateMutability": "nonpayable",
      "type": "function"
    },
    {
      "inputs": [
        {
          "internalType": "uint256",
          "name": "",
          "type": "uint256"
        }
      ],
      "name": "voters",
      "outputs": [
        {
          "internalType": "address",
          "name": "addr",
          "type": "address"
        },
        {
          "internalType": "bool",
          "name": "hasVoted",
          "type": "bool"
        }
      ],
      "stateMutability": "view",
      "type": "function"
    }
  ],
  "bytecode": "0x608060405234801561001057600080fd5b50604051610ecc380380610ecc83398181016040528101906100329190610336565b33600160006101000a81548173ffffffffffffffffffffffffffffffffffffffff021916908373ffffffffffffffffffffffffffffffffffffffff16021790555060018060146101000a81548160ff02191690831515021790555060005b600581101561017b57600060405180604001604052808484600581106100b9576100b8610363565b5b602002015173ffffffffffffffffffffffffffffffffffffffff168152602001600015158152509080600181540180825580915050600190039060005260206000200160009091909190915060008201518160000160006101000a81548173ffffffffffffffffffffffffffffffffffffffff021916908373ffffffffffffffffffffffffffffffffffffffff16021790555060208201518160000160146101000a81548160ff02191690831515021790555050508080600101915050610090565b5050610392565b6000604051905090565b600080fd5b600080fd5b6000601f19601f8301169050919050565b7f4e487b7100000000000000000000000000000000000000000000000000000000600052604160045260246000fd5b6101df82610196565b810181811067ffffffffffffffff821117156101fe576101fd6101a7565b5b80604052505050565b6000610211610182565b905061021d82826101d6565b919050565b600067ffffffffffffffff82111561023d5761023c6101a7565b5b602082029050919050565b600080fd5b600073ffffffffffffffffffffffffffffffffffffffff82169050919050565b60006102788261024d565b9050919050565b6102888161026d565b811461029357600080fd5b50565b6000815190506102a58161027f565b92915050565b60006102be6102b984610222565b610207565b905080602084028301858111156102d8576102d7610248565b5b835b8181101561030157806102ed8882610296565b8452602084019350506020810190506102da565b5050509392505050565b600082601f8301126103205761031f610191565b5b600561032d8482856102ab565b91505092915050565b600060a0828403121561034c5761034b61018c565b5b600061035a8482850161030b565b91505092915050565b7f4e487b7100000000000000000000000000000000000000000000000000000000600052603260045260246000fd5b610b2b806103a16000396000f3fe608060405234801561001057600080fd5b50600436106100885760003560e01c80638da5cb5b1161005b5780638da5cb5b14610104578063c3403ddf14610122578063da58c7d91461012c578063ea7def6d1461015d57610088565b806301e844d71461008d5780630dc96015146100ab57806347cf6f76146100ca5780634b9f5c98146100e8575b600080fd5b61009561017b565b6040516100a29190610647565b60405180910390f35b6100b3610196565b6040516100c1929190610662565b60405180910390f35b6100d26101d1565b6040516100df91906106a6565b60405180910390f35b61010260048036038101906100fd91906106f2565b6101e4565b005b61010c6103da565b6040516101199190610760565b60405180910390f35b61012a610400565b005b610146600480360381019061014191906107b1565b6104fc565b6040516101549291906107de565b60405180910390f35b610165610559565b6040516101729190610647565b60405180910390f35b600260009054906101000a900468ffffffffffffffffff1681565b600080600160159054906101000a900468ffffffffffffffffff16600260009054906101000a900468ffffffffffffffffff16915091509091565b600160149054906101000a900460ff1681565b600160149054906101000a900460ff16610233576040517f08c379a000000000000000000000000000000000000000000000000000000000815260040161022a90610864565b60405180910390fd5b60008061023f33610574565b9150915081610283576040517f08c379a000000000000000000000000000000000000000000000000000000000815260040161027a906108d0565b60405180910390fd5b60008181548110610297576102966108f0565b5b9060005260206000200160000160149054906101000a900460ff16156102f2576040517f08c379a00000000000000000000000000000000000000000000000000000000081526004016102e99061096b565b60405180910390fd5b600160008281548110610308576103076108f0565b5b9060005260206000200160000160146101000a81548160ff02191690831515021790555082156103855760018060158282829054906101000a900468ffffffffffffffffff1661035891906109ba565b92506101000a81548168ffffffffffffffffff021916908368ffffffffffffffffff1602179055506103d5565b6001600260008282829054906101000a900468ffffffffffffffffff166103ac91906109ba565b92506101000a81548168ffffffffffffffffff021916908368ffffffffffffffffff1602179055505b505050565b600160009054906101000a900473ffffffffffffffffffffffffffffffffffffffff1681565b600160009054906101000a900473ffffffffffffffffffffffffffffffffffffffff1673ffffffffffffffffffffffffffffffffffffffff163373ffffffffffffffffffffffffffffffffffffffff1614610490576040517f08c379a000000000000000000000000000000000000000000000000000000000815260040161048790610a69565b60405180910390fd5b600160149054906101000a900460ff166104df576040517f08c379a00000000000000000000000000000000000000000000000000000000081526004016104d690610ad5565b60405180910390fd5b6000600160146101000a81548160ff021916908315150217905550565b6000818154811061050c57600080fd5b906000526020600020016000915090508060000160009054906101000a900473ffffffffffffffffffffffffffffffffffffffff16908060000160149054906101000a900460ff16905082565b600160159054906101000a900468ffffffffffffffffff1681565b60008060005b600080549050811015610615578373ffffffffffffffffffffffffffffffffffffffff16600082815481106105b2576105b16108f0565b5b9060005260206000200160000160009054906101000a900473ffffffffffffffffffffffffffffffffffffffff1673ffffffffffffffffffffffffffffffffffffffff160361060857600181925092505061061e565b808060010191505061057a565b50600080915091505b915091565b600068ffffffffffffffffff82169050919050565b61064181610623565b82525050565b600060208201905061065c6000830184610638565b92915050565b60006040820190506106776000830185610638565b6106846020830184610638565b9392505050565b60008115159050919050565b6106a08161068b565b82525050565b60006020820190506106bb6000830184610697565b92915050565b600080fd5b6106cf8161068b565b81146106da57600080fd5b50565b6000813590506106ec816106c6565b92915050565b600060208284031215610708576107076106c1565b5b6000610716848285016106dd565b91505092915050565b600073ffffffffffffffffffffffffffffffffffffffff82169050919050565b600061074a8261071f565b9050919050565b61075a8161073f565b82525050565b60006020820190506107756000830184610751565b92915050565b6000819050919050565b61078e8161077b565b811461079957600080fd5b50565b6000813590506107ab81610785565b92915050565b6000602082840312156107c7576107c66106c1565b5b60006107d58482850161079c565b91505092915050565b60006040820190506107f36000830185610751565b6108006020830184610697565b9392505050565b600082825260208201905092915050565b7f4f79207665726d652069736c656d6920736f6e6120657264692e000000000000600082015250565b600061084e601a83610807565b915061085982610818565b602082019050919050565b6000602082019050818103600083015261087d81610841565b9050919050565b7f4f79206b756c6c616e6d61207965746b696e697a20796f6b2e00000000000000600082015250565b60006108ba601983610807565b91506108c582610884565b602082019050919050565b600060208201905081810360008301526108e9816108ad565b9050919050565b7f4e487b7100000000000000000000000000000000000000000000000000000000600052603260045260246000fd5b7f4275206164726573207a6174656e206f79206b756c6c616e64692e0000000000600082015250565b6000610955601b83610807565b91506109608261091f565b602082019050919050565b6000602082019050818103600083015261098481610948565b9050919050565b7f4e487b7100000000000000000000000000000000000000000000000000000000600052601160045260246000fd5b60006109c582610623565b91506109d083610623565b9250828201905068ffffffffffffffffff8111156109f1576109f061098b565b5b92915050565b7f536164656365206f776e65722062752069736c656d69207961706162696c697260008201527f2e00000000000000000000000000000000000000000000000000000000000000602082015250565b6000610a53602183610807565b9150610a5e826109f7565b604082019050919050565b60006020820190508181036000830152610a8281610a46565b9050919050565b7f4f796c616d61207a6174656e20736f6e6c616e646972696c64692e0000000000600082015250565b6000610abf601b83610807565b9150610aca82610a89565b602082019050919050565b60006020820190508181036000830152610aee81610ab2565b905091905056fea2646970667358221220e435094ce567f850b2941750a669c7cd7e814aee26a0de5a5dda17482bede60764736f6c634300081d0033",
  "linkReferences": {},
  "deployedLinkReferences": {}
}